:020000040800F2
:100000009028002095020008692B0008D1260008DE
:10001000652B000825060008815900080000000033
:10002000000000000000000000000000A1300008F7
:100030009D06000800000000792B0008A53000088C
:10004000AF020008AF020008AF020008AF020008CC
:10005000AF020008AF020008AF020008AF020008BC
:10006000AF020008AF020008AF020008AF020008AC
:10007000AF020008AF020008AF020008AF0200089C
:10008000AF020008AF020008AF020008AF0200088C
:10009000AF020008AF020008AF020008AF0200087C
:1000A000AF020008AF020008AF020008AF0200086C
:1000B000AF020008AF020008AF020008AF0200085C
:1000C000AF020008AF020008AF020008AF0200084C
:1000D000AF020008AF020008AF020008AF0200083C
:1000E000AF020008AF020008AF020008AF0200082C
:1000F000AF020008AF020008AF020008AF0200081C
:10010000AF020008AF020008AF020008AF0200080B
:10011000AF020008AF020008AF020008AF020008FB
:10012000AF020008AF020008AF020008AF020008EB
:10013000AF020008AF020008AF020008AF020008DB
:10014000AF020008AF020008AF0200086D2B0008E4
:10015000AF020008AF020008AF020008AF020008BB
:10016000AF020008AF020008AF020008AF020008AB
:10017000AF020008AF020008AF0200080000000054
:10018000AF020008AF02000800F002F800F072F8B9
:1001900014A696E8000CB244B344DA4501D100F04D
:1001A00069F8BAE80F000FA696E83000A5EB040541
:1001B00004EB0607AAEB0704A7F101074FEA1515A0
:1001C0004FEA3414A4F10104AC4201D300F052F818
:1001D00013F0010F18BFFB1A43F0010300F001F800
:1001E000DBE71847847B0000A47B00000A444FF043
:1001F000000C10F8013B13F0070408BF10F8014B86
:100200001D1108BF10F8015B641E05D010F8016BCA
:10021000641E01F8016BF9D113F0080F1EBF10F82E
:10022000014BAD1C0C1B09D16D1E58BF01F801CB51
:10023000FAD505E014F8016B01F8016B6D1EF9D5D4
:100240009142D6D37047000070470000002300247D
:1002500000250026103A28BF78C1FBD8520728BFD6
:1002600030C148BF0B6070471FB505F009FD1FBDC9
:1002700010B510BD00F09CF91146FFF7F5FF05F031
:10028000FFFB00F0BAF903B4FFF7F2FF03BC00F084
:10029000C1F900000948804709480047FEE7FEE72A
:1002A000FEE7FEE7FEE7FEE7FEE7FEE7FEE7FEE726
:1002B00004480549054A064B7047000055310008BF
:1002C000890100089022002090280020902400201E
:1002D0009024002053EA020C00F069802DE9F04BD5
:1002E0004FF00006002B1FBFB3FA83F503FA05F4A5
:1002F00024FA05F65E4012BF1643B2FA82F502FAFE
:1003000005F4C5F120051EBF22FA05FC44EA0C04E1
:10031000203556EA044C4FEA144418BF641C4FF0D1
:1003200000084FF00009904271EB030C39D300290B
:1003300019BFB1FA81F701FA07F6B0FA80F700FAAF
:1003400007F6C7F120071EBF20FA07FC46EA0C0695
:100350002037B6FBF4FCA7EB0507103F07F01F0B97
:10036000CBF120062CFA06F60CFA0BFB44BFB34681
:100370000026202FA4BF5E464FF0000B5BEA060C60
:1003800008BF4FF0010B19EB0B0948EB0608ABFB5C
:10039000027C06FB02CC0BFB03CCC01B71EB0C01F7
:1003A000C1E70B46024641464846BDE8F08B13B50F
:1003B000084318BF4FF0FF300146AFF30080BDE89F
:1003C0001C407047032A40F2308010F0030C00F00C
:1003D000158011F8013BBCF1020F624498BF11F87F
:1003E00001CB00F8013B38BF11F8013BA2F1040238
:1003F00098BF00F801CB38BF00F8013B11F00303B0
:1004000000F08280083AC0F0088051F8043B083AB6
:1004100051F804CBA0E80810F5E7121D5CBF51F8B5
:10042000043B40F8043BAFF30080D20724BF11F82F
:10043000013B11F801CB48BF11F8012B24BF00F894
:10044000013B00F801CB48BF00F8012B704702F0D8
:10045000FF0343EA032242EA024200F002B84FF0EF
:10046000000200B5134694469646203922BFA0E804
:100470000C50A0E80C50B1F12001BFF4F7AF090710
:1004800028BFA0E80C5048BF0CC05DF804EB890001
:1004900028BF40F8042B08BF704748BF20F8022B44
:1004A00011F0804F18BF00F8012B704710B50446BB
:1004B00010F0030F08BF11F0030F40F015804FF04C
:1004C000013E121FC0F20E8051F8043BA3EB0E0C4C
:1004D0002CEA030C1CEACE1C08BF40F8043BF0D009
:1004E000A1F1040102F10402521E08DB11F8013BE4
:1004F00000F8013B002BF7D1114600F037F82046F9
:1005000010BD70477047704710B5203AC0F00B809F
:10051000B1E81850A0E81850B1E81850A0E81850F9
:10052000203ABFF4F5AF5FEA027C24BFB1E818506F
:10053000A0E8185044BF18C918C0BDE810405FEAD1
:10054000827C24BF51F8043B40F8043B08BF70474D
:10055000D20728BF31F8023B48BF11F8012B28BF52
:1005600020F8023B48BF00F8012B70474FF0000213
:100570000429C0F0128010F0030C3FF472AFCCF1EC
:10058000040CBCF1020F18BF00F8012BA8BF20F823
:10059000022BA1EB0C01FFF764BF5FEAC17C24BF13
:1005A00000F8012B00F8012B48BF00F8012B704721
:1005B000754600F02BF8AE4605006946534620F01C
:1005C0000700854618B020B5FFF772FEBDE8204051
:1005D0004FF000064FF000074FF000084FF0000BFF
:1005E000AC46ACE8C009ACE8C009ACE8C009ACE86E
:1005F000C00921F007018D46704710B50446AFF3DE
:1006000000802046BDE81040FFF73DBE004870471F
:100610006001002001491820ABBEFEE72600020061
:1006200070470000FEE70000002070470020704780
:1006300010B541F62C24C2F2000441F22C21C2F282
:1006400000012046002202F0C7FF40F62C21C2F232
:100650000001204602F0B2FF002010BD70B540F24C
:10066000C6160A680546C2F200060C46701C2946EA
:10067000FFF71CFF2168002241F62C244254012080
:10068000C2F2000430702046294602F097FF20464F
:1006900002F06EFF002070BD002070477047000020
:1006A00072B600BFFEE70000B0B5044600F0E6F801
:1006B000054640F25800C2F200000078611C18BFE5
:1006C000044400BF00F0DAF8401BA042FAD3B0BDEA
:1006D0002DE9F04F83B000F1200200F13E4741F6D2
:1006E0000045009207F1FF77C4F2020508224FEAA5
:1006F000B726A84208BF072200254FF000084FF098
:100700000009072E38BF4FEAB72201920AE000BF66
:1007100009F1010908F10208B9F1100F05F104050A
:1007200000F0A2800F68012202FA09FE17EA0E0A01
:10073000EED0D1F804C003220CF003077E1E02FAAB
:1007400008F4012E6FEA040B12D88468CE6804EA1C
:100750000B0406FA08F634438460446824EA0E0663
:10076000CCF3001404FA09F42643466004E000BF09
:10077000032F01D103271EE0C6688C6806EA0B062A
:1007800004FA08F42643022FC66014D16FF0030266
:10079000009E02EA590756F807C005F01C040F2214
:1007A0000B69A2402CEA0202A3401A43F251D1F88D
:1007B00004C00CF00307026807FA08F302EA0B0210
:1007C0001A431CF4403F0260A2D0002243F64403C7
:1007D0000292C4F202031A6843F6004442F48042D3
:1007E0001A601A68C4F2010402F480420292029A6A
:1007F00029F003024FF6084C2244CFF6FF7C52F852
:100800000C3005F00C070F26BE40B343019E06FADC
:1008100007F73B4342F80C30A2684B6842EA0A07EC
:1008200043F60C4CDE0258BF22EA0A07A760C4F266
:10083000010CDCF800209E0242EA0A0758BF22EAB7
:100840000A07CCF8007062689E0342EA0A0758BFA4
:1008500022EA0A0767602268DB0342EA0A0758BFF8
:1008600022EA0A07276053E703B0BDE8F08F0000D3
:10087000002A08BF090481617047000042F2882005
:10088000C2F2000000687047002804BF01207047D2
:10089000F0B581B0044690F83D0028B9002084F8F6
:1008A0003C00204600F09AFA242084F83D0020689D
:1008B000016821F001010160016841F4004101601B
:1008C000016821F40041016001F04EFC636848F2C8
:1008D000A16CC0F2010C40F60011C0F23D0163456D
:1008E0003CBF48F28041C0F21E01884202D2012082
:1008F00001B0F0BD4DF68361C4F21B31A0FB0112C3
:100900002168970CD1F804E04FF496762EF03F055D
:1009100045EA92454D60774348F638160D6AC0F2B5
:100920004106A7FB067625F03F07634538BF960CC6
:10093000721C3A430A62CA6948F2A0664CF6FF7715
:10094000C0F20106B34222EA07020BD801385B006D
:10095000B0FBF3F001306FF31F30042898BF042080
:100960001BE000BFA768013857B119277B43B0FBD4
:10097000F3F001306FF31F3070B100F5804007E0F5
:1009800003EB4303B0FBF3F001306FF31F3018B1FA
:1009900000F5004001E000BF01201043C861086875
:1009A000D4E9072320F0C00010431843086088688A
:1009B00048F2FF3204F10C0790438CCF18431043E8
:1009C000A6698860C86820F0FF0038433043C860DB
:1009D000086840F00100086000202021206484F8AD
:1009E0003D10206384F83E0001B0F0BD2DE9F04FCA
:1009F00083B01E46924688460446FFF73FFF94F8B0
:100A00003D10202924D12168054600BF8869800750
:100A10001AD5FFF733FF401B21681A28F6D38869DF
:100A20008007F3D500202021206384F83D1084F84E
:100A30003E00216C41F02001216484F83C0002203A
:100A400003B0BDE8F08F00BF94F83C00012803D14B
:100A5000022003B0BDE8F08F4FF0010984F83C900C
:100A60000868C00703D1086840F001000860086802
:100A7000002720F400600860242084F83D00002056
:100A8000CFF6FF702764E06208F0FE08BAF1010FAC
:100A900088BFD1464FF0A00A4FF0200B04E000BF02
:100AA00001374F4500F0A2800868002240F48070B2
:100AB000086020464FF001113346009501F068FEB2
:100AC0002168002856D1C1F81080FFF7D7FE2168B1
:100AD0004B694A6994F83D50A02D054605D013F0A6
:100AE000020008BF12F480601AD084F83DB0486953
:100AF0000A68800742F400720A6045D46FF480608F
:100B0000486100BF88698007CAD5FFF7B7FE401B60
:100B100021681A28F6D388698007F3D54AE000BF18
:100B2000B6B100BFFFF7AAFE401BB04288BF84F8F1
:100B30003DA021684A69486994F83D30A02BD4D083
:100B400012F0020208BF10F48060EBD0CDE700BFC6
:100B5000FFF794FE84F83DA021684A69486994F83B
:100B60003D30A02BC1D012F00202BED110F4806043
:100B7000EED0BAE70868C00544BF4FF400702064A7
:100B8000032003B0BDE8F08F002002904869029076
:100B9000886902900298886901E000BF8069800737
:100BA0001AD5FFF76BFE411B20681A29F6D381691D
:100BB0008907F3D500202021206384F83D1084F8B4
:100BC0003E00216C41F02001216484F83C000120AA
:100BD00003B0BDE8F08F00BF202084F83D00002066
:100BE00084F83C0003B0BDE8F08F00BF202084F8FB
:100BF0003D00002084F83C00012003B0BDE8F08FE8
:100C00002DE9F04383B01E46174689460446FFF798
:100C100035FE94F83D10202924D10546206800BFF8
:100C2000816989071AD5FFF729FE411B20681A2917
:100C3000F6D381698907F3D500202021206384F849
:100C40003D1084F83E00216C41F02001216484F8BD
:100C50003C00022003B0BDE8F08300BF94F83C10D4
:100C6000012903D1022003B0BDE8F083012184F8FB
:100C70003C100168C90703D1016841F0010101601E
:100C8000016840F2020821F400610160212184F82A
:100C90003D10102184F83E100021216467626685B2
:100CA000618DC0F201082185A8F10211E162E16ABB
:100CB0000A9E11F5803F18BF01291DD1016841F43A
:100CC0008071016020464FF00111002233460095EB
:100CD00001F05EFD50B120680068C00544BF4FF4CC
:100CE00000702064012003B0BDE8F0832069B0F5F6
:100CF000804F07D1FE2015E00829DFD0216B122993
:100D0000DCD0DFE7062000EAD9102168F030086166
:100D100008F10601204632462B4601F01FFE00284E
:100D2000E0D1FF20216800EA090008612046414621
:100D300032462B4601F012FE0028D3D1002002904B
:100D400020684169029180690290029806E000BF24
:100D5000204631462A4601F0BDFC18BB208D68B301
:100D6000204631462A4601F065FED8B9606A2168FE
:100D7000024612F8013B0B616262628D013A6285A4
:100D8000228D531E23854F697F07E1D51B04DFD0D9
:100D9000437802300B616062608D01386085901E7F
:100DA0002085D5E7206C04289CD12068016841F497
:100DB00000710160012003B0BDE8F0832068016884
:100DC00041F400710160202084F83D00002084F887
:100DD0003E0084F83C0003B0BDE8F083B0B586B0B7
:100DE00045F200410068C4F20001002488420594E5
:100DF000CDE903440294019402D006B0B0BD00BF17
:100E000043F630050094C4F20205286840F0020061
:100E10002860286800F0020000900098C02001902F
:100E20001220CDE90204032004900420059001F56E
:100E3000D83001A9FFF74CFC0094286940F4001059
:100E40002861286900F400100090009806B0B0BD39
:100E500040F2580042F28821C2F20000C2F20001C2
:100E600000780A68104408607047000080B543F6B7
:100E70000040C4F20200016841F4007101600168A1
:100E800041F480610160016841F4807101600320D8
:100E900000F086F80F2000F005F800F027F8002099
:100EA00080BD000070B540F25806C2F2000640F264
:100EB0008C013278C2F200014FF47A730968B3FBF7
:100EC000F2F20446B1FBF2F1084601F081FB0F2C6F
:100ED0004FF0010508D838B94FF0FF302146002205
:100EE000002500F031F87460284670BD82B0002003
:100EF00043F640010190C4F202014A6842F4804284
:100F00004A604A6802F480420192019A009008689F
:100F100040F080500860086800F080500090009811
:100F200002B07047002848BF704700F01F0101223F
:100F300002FA01F11C2202EAD0004EF20012CEF2B7
:100F4000000281507047000010B54EF60C5CCEF2E6
:100F5000000CDCF80030C3F3022E8EF00704042CE2
:100F600028BF0424BEF103034FF0FF3E0EFA04F441
:100F700038BF0023A14399400EFA03F39A4311436B
:100F800000F00F0200F160430901043A03F56443E5
:100F90006244002848BF02F10C03197010BD000024
:100FA0004EF60C51CEF200010A684FF6FF031A40CC
:100FB00060F30A2242F0806040F0FD7008607047E4
:100FC0007047000002680020516270472DE9F0412F
:100FD000D0F80080D8F8243091B1D8F82870B1F159
:100FE000010C03EB17414FD05FFA8CF708F58273C1
:100FF000042F0CF0030E0BD2002700242BE000BFBF
:1010000043EA02410020C8F82810BDE8F08100BF83
:101010000CF0FC0508F1F406002400BF56F8107F20
:1010200044F0020001EB174144F00107FFB253F80E
:101030002770C0B253F8200001EB174101EB1040BC
:1010400044F00301C9B253F821100434E7B2AF42AF
:1010500000EB1141E2D1BEF1000F15D053F827008B
:10106000BEF1010F01EB10410ED0601CC0B253F86D
:101070002000BEF1020F01EB104105D0A01CC0B250
:1010800053F8200001EB104141EA024008EB8C01CB
:10109000C1F804010020BDE8F0810000D0F8E004B0
:1010A00002F028BE01EBC102D0F8E03400EB820070
:1010B000026A184602F08ABD01EBC102D0F8E034A2
:1010C00000EB8200D0F86022184602F0DBBD000081
:1010D000D0F8E00402F010BE10B501F00F0E0A4681
:1010E0004FFA81FC0EEBCE0100EB810303F5157185
:1010F000BCF1000F48BF03F1140190F89434D209F9
:10110000012B4A7081F800E004BF022010BD026884
:10111000012380F894340446104603F0C7FB0020F6
:1011200084F8940410BD0000037901F00F029A4284
:1011300084BF0120704710B502EBC20300EB8303AC
:101140004FFA81FC8E4603F51571BCF1000F48BFC4
:1011500003F114014FEADE134B7090F894344FF012
:10116000000C012B81F802C00A7004BF022010BDE0
:101170000268012380F894340446104603F08AFE86
:10118000002084F8940410BD01F00F0101EBC101AF
:1011900000EB8100D0F868027047000010B54FFAEC
:1011A00081FE01F00F0CBEF1000F6FF3DF220CEB9C
:1011B000CC010DD400EB810E00240EF515718EF8D4
:1011C00055428EF854C2CEF85C228EF8583209E0AF
:1011D00000EB810101F814CF01244C708A600B717F
:1011E000A1F81AC0022B04BF00224A7190F894247F
:1011F000012A04BF022010BD0268012380F8943444
:101200000446104603F0F6F9002084F8940410BD5B
:1012100010B501F00F0E0EEBCE0100EB81044FF084
:10122000000CC4F868C284F855C290F806C004F5F2
:101230001571C4F86022C4F86432BCF1010F84F85F
:1012400054E208BFCA610068624603F06DFE0020E8
:1012500010BD0000B0B5027901F00F0494424FF0C8
:1012600001022CD801EBC10300EB83034FFA81FC90
:1012700003F5157304EBC405C90900EB8505BCF142
:10128000000F48BF05F11403597090F894149A7038
:1012900001291C7004BF0220B0BD0168054680F81A
:1012A00094240846194603F01FFE2CB92868A97932
:1012B00005F29C4203F0C0FD002285F894241046FC
:1012C000B0BD000001F00F0C0CEBCC0100EB810174
:1012D00001F814CF4FF0000C0B618379C1F814C0F2
:1012E0004FF0010CCA60012B81F801C008BFCA6130
:1012F00080B500681A4603F017FE002080BD00008C
:101300002DE9F04F87B005688246284604F028F89A
:1013100010B107B0BDE8F08FDAF8000004F04EF825
:101320000028F6D0D5F80808C0F30D21DAF800003F
:10133000CAF8D41404F042F80146DAF8000089072C
:1013400003D5416901F00201416105F50061049195
:1013500004F034F80146DAF80000C906059535D5E1
:10136000816921F0100181612C6A04F00F0000EB0B
:10137000C0000AEB8001C4F34340062801F515754F
:1013800012D002281BD147F6F07014EA000616D0DE
:10139000E96834090598224604F014F8E86800EB7F
:1013A0001610E86008E000BF05980AF29C41082288
:1013B00004F008F8C4F30A14686920446861DAF894
:1013C0000000816941F010018161059D03F0F6FF85
:1013D000000340F1F180DAF8000003F0CDFF0028AF
:1013E00000F0EA8006460AF29C404FF43068002480
:1013F0004FF0000B069019E005EB08000221816018
:10140000B80642BF05EB080020218160B80442BF46
:1014100005EB08004FF4005181600BF1010B7608D9
:1014200008F1200804F1240400F0C680F007F4D08D
:10143000DAF800005FFA8BF9494603F0B7FF074678
:10144000C00760D005EB080001218160DAF80000D8
:1014500008EB0001036C8A689AF80650012D25D12B
:10146000150733D4950600F19F8043F20B05C4F6AF
:101470005475AB42059D02D312F4004230D10AEB01
:101480000402D2F8743209696FF3DF41A3EB010162
:10149000C2F868129CBBD2F86432002B00F08A803C
:1014A000D2F860020844C2F8600228E043F20B055B
:1014B000C4F65475FF35AB4218D1059D10040FD406
:1014C000900644BF2020886019E000BF43F20B0063
:1014D000C4F65470059D834215D312F4004012D017
:1014E0004FF40040886038070FD43DE0059D34B9C3
:1014F000DAF8641219B90021069A03F09DFC5046EF
:101500004946FFF7D9FD38072ED505EB080008211D
:101510008160DAF8000043F20B02056C40448168F8
:10152000C4F6547295420BD311F4004108D04FF425
:1015300000418160504600F01DFD059D0AE000BF9E
:10154000504600F017FD43F20B00C4F6547085427C
:10155000059D09D39AF80600012805D1DAF80000A4
:10156000069A012103F068FCF80642BF05EB08006B
:1015700010218160B8077FF543AF6869000604D584
:101580000499486840F4806048600AEB040090F8D1
:10159000571201297FF430AF002180F857125046CE
:1015A000494600F035FB27E720208860059D380775
:1015B000ABD4D9E701219FE7DAF80000CDF818A0F5
:1015C00003F0FCFE400340F1D3800698006803F06E
:1015D000CBFE002800F0CC800646069805F5106981
:1015E00000F1140100F29C40002703910190CDF816
:1015F000089004E0760807F1010700F0B980F007D1
:10160000F8D006985FFA87FA0068514603F0BCFEEE
:101610000446C00726D0049A07F00F00516B01233F
:1016200003FA00F021EA0000506309EB47108360E1
:1016300006988079012811D1039907EBC70001EBC7
:101640008000D0E902121144C1603FB9006928B995
:101650000698019A0068012103F0EEFB06985146B6
:10166000FFF720FD200742BF09EB471008218160EA
:10167000E00642BF09EB471010218160600642BFBF
:1016800009EB471040218160A00716D5284639464E
:1016900003F0F8FD039907EBC70001EB800010F899
:1016A000031F012905D1002101700698514600F061
:1016B000ABFA09EB47100221816020069AD5039905
:1016C00007EBC70001EB8008D8E90420824291D3E0
:1016D0000699D8F808300C68111A994238BF0B46A1
:1016E00004EB4711D1F818C903F1030E1FFA8CF36C
:1016F000B3EB9E0F2DD301F5106900BFD8F8102071
:10170000824224D9101A069AD8E902B1957958452F
:1017100038BF83461FFA8BF3204652460095059D3D
:1017200004F0F8F8D8F80C00D8F814105844C8F8A9
:101730000C0001EB0B00C8F81400D9F818100BF1DD
:10174000030289B2B1EB920FD8D2D8F81020DDF89D
:10175000089082423FF64EAF07F00F00D4F83418DD
:10176000012202FA00F021EA0000C4F8340841E73F
:10177000DDF81890D9F8000003F020FE002821D4ED
:10178000D9F8000003F01AFE00053AD4D9F8000099
:1017900003F014FEC00445D50499486820F0010008
:1017A0004860D9F80000102103F06CFD99F804009E
:1017B000010600F0EC80C1B2042900F0030035D22C
:1017C00000219AE00499486820F00100486099F8E7
:1017D000CC04012808D1002089F8CC044846002117
:1017E000FFF7EEFB03E000BF484600F0A7FBD9F887
:1017F0000000416901F00041416103F0DFFD000597
:10180000C4D504988068C00702D0484600F0DAFBCF
:10181000D9F80000416901F40061416103F0CEFD97
:10182000C004B9D4D9F80000DDE000BF6FF0600259
:1018300002EA411200234FF67F370021EE18C6F866
:101840000879D6F80059803325F40015C6F80059F8
:10185000C6F8087BD6F8005B9A4225F40015C6F856
:10186000005BD6F8005B01F1040145F00065C6F8A5
:10187000005BC6F82879D6F8205925F40015C6F87B
:101880002059C6F8287BD6F8205B25F40015C6F849
:10189000205BD6F8205B45F00065C6F8205BC6F8F3
:1018A0004879D6F8405925F40015C6F84059C6F8CD
:1018B000487BD6F8405B25F40015C6F8405BD6F8A7
:1018C000405B45F00065C6F8405BC6F86879D6F81D
:1018D000605925F40015C6F86059C6F8687BD6F83B
:1018E000605B25F40015C6F8605BD6F8605B45F0D8
:1018F0000065C6F8605B059DA0D1002847D005F5BE
:10190000106202EB41134FF67F374E019F609559ED
:10191000059B25F4001503F53063955103EB411544
:10192000AF609D59012825F400159D519D5945F042
:1019300000659D512BD04E1C02EB46147501A7602B
:10194000545903EB461624F400145451B7605F5900
:10195000022827F400175F515F5947F000675F5175
:1019600015D0881C02EB40174FF67F364101BE6050
:10197000575803EB401027F400175750866058580B
:1019800020F400105850585840F000605850049F00
:101990008421F869442240F00110F86199F80F00A1
:1019A00000284FF00B0008BF142108BF42F22B00A3
:1019B0007B5808BF102218437850B85840F00B00ED
:1019C000B850386809F29C4220F4FE603860D9F8BB
:1019D000000099F8061003F02FFAD9F800004169C9
:1019E00001F48051416103F0E9FC0146D9F800009F
:1019F00089041AD502F040FED9F8000003F0A2FCD9
:101A0000D9F8004089F8070000F0A8FB99F80720F2
:101A10000146204603F0F2FE484600F079FAD9F874
:101A20000000416901F40051416103F0C7FC000767
:101A300006D4D9F8000003F0C1FC00060DD437E04D
:101A4000484600F07FFAD9F80000416901F008012A
:101A5000416103F0B3FC00062AD50599886920F09E
:101A60008000886199F80400022821D309F51574D3
:101A700009F11405012640F27B2704E00136864275
:101A800007F1240714D219F807100129F6D106F03E
:101A90000F0000EBC0023006D9F8000005EB820110
:101AA00058BF04EB820103F05DFB99F80400E5E701
:101AB000D9F8000003F082FCC0024FD4D9F800002E
:101AC00003F07CFC059D800240F1808099F80410B1
:101AD000022929D305F53260013909F51F72012366
:101AE00005E000BF2030013902F124021CD0076854
:101AF0001678012EF6D1B7F1FF3FF3DCD9F8D464A4
:101B000007F4803706F00106B742EBD102F8013C3A
:101B1000AF6947F08007AF616F693F06E2D404996F
:101B2000486840F400704860D9F80000416901F449
:101B30000011416103F042FC40004DD54846FFF7DB
:101B4000ADFAD9F80000416901F08041416103F02C
:101B500035FC40077FF5DDAB45E000BF99F8040098
:101B6000022827D3059909F1140401F5126509F13A
:101B70003B064FF00108012706E000BF0137203582
:101B8000874206F1240615D229687278012AF5D118
:101B9000B1F1FF3FF2DC07F00F0000EBC001D9F814
:101BA000000004EB810186F8008003F0DBFA99F86D
:101BB0000400E3E7D9F80000416901F480114161B4
:101BC00003F0FCFB059D80023FF580AFD9F80000D3
:101BD00003F0F4FB4000B1D4D9F8000003F0EEFBB1
:101BE00040077FF596ABD9F800004468610704D53B
:101BF0004846FFF76DFAD9F800004168214341607B
:101C000007B0BDE8F08F0000D0F8E00402F0D8B8CB
:101C1000D0F8E00402F0EAB8002804BF01207047C1
:101C2000F0B581B00446056890F8950428B9002005
:101C300084F89404204600F027F90320B5F1A04F62
:101C400084F8950404BF0020A071206803F0ECF82C
:101C500094E80F00267C009602F01EFD002840F05C
:101C600000812068002103F003FC002840F0F98087
:101C700094F804E0BEF1000F00F0EC800EF0030CCD
:101C8000BEF1040F4FF0000240D30EF0FC03A4F1AC
:101C900090000321012500BFCE1E80F8A460A0F8AB
:101CA000BE608E1E80F8C860A0F8E2604E1E80F80C
:101CB000EC60A0F8066180F81011A0F82A110E1D42
:101CC000013180F8A55080F8A820C0E92B22C0F887
:101CD000B42080F8C95080F8CC20C0E93422C0F884
:101CE000D82080F8ED5080F8F020C0E93D22C0F8FF
:101CF000FC2080F8115180F81421C0E94622C0F878
:101D00002021903099423146C6D1F21EBCF1000F1D
:101D100031D004F1140002EBC20100EB8105012374
:101D200000F821200021BCF1010F6B706A8329713A
:101D3000C5E9021129611ED0551C05EBC50600EB53
:101D40008607BCF1020F7B7000F826507D83397145
:101D5000C7E9021139610ED0911C01EBC10200EB01
:101D60008203012500F8221000205D70598318714C
:101D7000C3E902001861BEF1000F6BD0BEF1040F81
:101D80004FF0000236D30EF0FC000321234600BFC3
:101D9000CF1E83F854728F1E83F878724F1E83F81B
:101DA000C0120D1D013183F8552283F85822C3E972
:101DB0009722C3F8642283F8792283F87C22C3E94E
:101DC000A022C3F8882283F89D2283F89C7283F8AE
:101DD000A022C3E9A922C3F8AC2283F8C12283F868
:101DE000C422C3E9B222C3F8D022903381422946EB
:101DF000CED1EA1EBCF1000F2CD004F5157002EB19
:101E0000C20300EB83070021BCF1010F797000F8D9
:101E100023203971C7E9021139611BD0531C03EB30
:101E2000C30700EB8706BCF1020F717000F8273082
:101E30003171C6E9021131610CD0911C01EBC10274
:101E400000EB820300275F7000F822101F71C3E9C6
:101E500002771F6194E80F00277C009702F088FD4D
:101E600030B1022084F89504012001B0F0BD00BF1C
:101E700000206074012084F89504206802F068FD59
:101E8000002001B0F0BD0000B0B586B000680024AD
:101E9000B0F1A04F0594CDE903440294019401D020
:101EA00006B0B0BD43F630050094C4F202052868C0
:101EB00001A940F001002860286800F001000090AE
:101EC00000984FF4C05001900220CDE90204032095
:101ED00004900A2005900020C4F20200FEF7F8FBEF
:101EE0006868002140F08000686000946869002202
:101EF00040F480406861686900F480400090009878
:101F00004320FFF721F84320FFF70CF806B0B0BDDF
:101F100010B50446C07928B1022801D0FEF7C0FBF5
:101F2000012100E00021D4F8E00401F0E5FFD4F83D
:101F3000E004BDE8104001F095BF0000D0F8E004D7
:101F400001F0C0BFD0F8E00401F0C6BF90F89424BF
:101F5000012A04BF0220704710B5012280F89424A2
:101F6000417402680446104603F036FC002084F8F1
:101F7000940410BDD0F8E02400F29C41104601F01A
:101F8000D1BF000010B5044690F89404012804BFA6
:101F9000022010BD2068012184F89414C16849060C
:101FA00006D5617B012903D1816B41F480318163C6
:101FB00003F060F9206802F0BBFC002084F8940470
:101FC00010BD000010B50446D0F8E00402F000F89F
:101FD0002068D0F8001E41F00101C0F8001EE07A30
:101FE000002808BF10BD4EF61050CEF20000016868
:101FF00041F00601016010BD002804BF01207047B8
:102000002DE9F04143F60808C4F202080446D8F866
:10201000F8030D4600F00700884207D288F8F8530D
:10202000D8F8F80300F00700A84277D120688107AC
:1020300017D5410705D5D8F8001041F4E051C8F88C
:102040000010010705D5D8F8001041F46041C8F828
:102050000010D8F80010A26821F0F0011143C8F870
:102060000010C00740D1D8F8F80300F00700A842DC
:1020700007D988F8F853D8F8F80300F00700A84209
:102080004CD12068410707D5D8F80010E26821F448
:10209000E0511143C8F80010000708D5D8F8000037
:1020A000216920F4604040EAC100C8F8000000F057
:1020B00083F8D8F8001045F69A42C1F30311C0F630
:1020C0000002515C40F28C0220FA01F140F25C0007
:1020D000C2F200000068C2F200021160FEF7E2FEE8
:1020E0000020BDE8F08100BF6068811E022907D290
:1020F00058F8081C89015CBF0120BDE8F08111E09F
:10210000012807D158F8081C89035CBF0120BDE8ED
:10211000F08107E058F8081C890703D40120BDE8C6
:10212000F08100BFD8F8001021F003010843C8F87F
:102130000000FEF7A3FB064641F28837D8F80000FE
:10214000616800F00C00B0EB810F8CD0FEF796FBBD
:10215000801BB842F2D90320BDE8F08140F28C0028
:10216000C2F200000068704740F28C0043F608019C
:10217000C2F20000C4F202010068096845F6AA42F2
:10218000C1F38221C0F60002515CC84070470000D4
:1021900040F28C0043F60801C2F20000C4F20201D2
:1021A0000068096845F6AA42C1F34231C0F6000250
:1021B000515CC8407047000010B543F60404C4F2F7
:1021C0000204606800F00C0142F200400829C0F2ED
:1021D000F40007D0042918BF10BD41F20020C0F25E
:1021E0007A0010BD216801F03F022168236849028E
:1021F000C3F3881106D4A1FB00010023FEF76AF89F
:1022000007E000BF41F20020C0F27A004843B0FB73
:10221000F2F021680222C1F3014102EB4101B0FB5F
:10222000F1F010BD002804BF012070472DE9F041F6
:1022300082B00446007843F60006C007C4F20206E6
:102240000CD0B06800F00C00042840F081803068A9
:10225000800303D56068002800F06881207880073B
:102260001BD5B06810F00C0F09D0B06800F00C005E
:10227000082840F087807068400200F18380306851
:10228000800703D5E068012840F05081306821695B
:1022900020F0F80040EAC10030602078000713D435
:1022A000207840072AD4A569002D00F03A81B06853
:1022B00000F00C00082840F0A580012D40F00E81B0
:1022C000012002B0BDE8F0816069002800F0828042
:1022D0000020C4F247200121C0F8801EFEF7CEFA8C
:1022E000054600BF706F8007DAD4FEF7C7FA401BBF
:1022F0000228F7D9032002B0BDE8F081306C5FEA14
:10230000C0080AD400200190306C40F08050306446
:10231000306C00F080500190019847F20007C4F241
:1023200000073868C00547D4386840F480703860CA
:10233000FEF7A4FA054600BF3868C0053CD4FEF796
:102340009DFA401B0228F7D9032002B0BDE8F081B6
:10235000B06800F00C00082803D1706840023FF517
:1023600076AF61683068B1F5803F07D0B1F5A02F36
:1023700040F09A8040F480203060306840F4803033
:1023800030609AE0E068002840F20000C4F2472084
:102390005CD001210160FEF771FA054630688007C4
:1023A0003FF574AFFEF76AFA401B0228F6D9032006
:1023B00002B0BDE8F08100BFA168306F012905D0EF
:1023C000052955D140F004003067306F40F001001E
:1023D000306756E00020C4F247200021C0F8801E7C
:1023E000FEF74CFA054600BF706F80077FF558AFC7
:1023F000FEF744FA401B0228F6D9032002B0BDE8DC
:10240000F08100BF0027C4F2472700203866FEF79E
:1024100035FA022D05460DD13068800140F18A80E1
:10242000FEF72CFA401B02284FF00300F4D902B04B
:10243000BDE8F0813068800173D5FEF71FFA401BBC
:1024400002284FF00300F5D9F1E700BF0021016039
:10245000FEF714FA054600BF306880077FF51DAF10
:10246000FEF70CFA401B02284FF00300F4D9DEE718
:1024700020F001003067306F002920F00400306741
:102480007AD0FEF7FBF9054641F28837306F8007B6
:1024900000F18480FEF7F2F9401BB842F6D9032020
:1024A00002B0BDE8F08100BF20F4803030603068B9
:1024B000002920F4802030607AD0FEF7DFF905464D
:1024C000306880033FF5CAAEFEF7D8F9401B642898
:1024D000F6D9032002B0BDE8F08100BF7068E16961
:1024E00000F480028A4221D1216A00F03F028A4230
:1024F0001CD147F6C071626A0140B1EB821F15D151
:10250000A16A4FF6FF73C903994300F44032A1F565
:1025100080318A420AD1E16A00F07060B0EB016F4D
:1025200004D1002002B0BDE8F08100BF012002B05C
:10253000BDE8F08104F11C052FCD084340EA82106C
:10254000D9034FF6FF729143A1F5803140EA05604F
:102550000843706001203866FEF790F9044600BF1A
:1025600030688001DDD4FEF789F9001B02284FF0A6
:102570000300F5D95BE700BFFEF780F9054641F29D
:10258000883700BF306F800708D5FEF777F9401B0A
:10259000B8424FF00300F5D949E700BFB8F1000F8A
:1025A0003FF581AE306C20F0805030647BE600BF98
:1025B000FEF764F9054600BF306880037FF54EAE34
:1025C000FEF75CF9401B64284FF00300F4D92EE7B6
:1025D000411E0020B0EB116F1CBF012070474EF26E
:1025E0001002CEF2000251604EF62351CEF20001ED
:1025F000F0230B700721906011607047002804BF22
:102600000120704710B5044690F8410028B9002019
:1026100084F84000204600F021F8242084F841008E
:102620002068C16821F40051C160204600F09CFD83
:102630002068016921F490410161416921F02A017A
:102640004161C16841F40051C160002020216064F3
:1026500084F8411084F84210606310BD80B586B0E4
:1026600044F200410068C4F2000100228842059251
:10267000CDE903220292019202D006B080BD00BFD4
:1026800043F630000092C4F20200036943F40033C1
:102690000361036903F400330093009B0092036815
:1026A00043F001030360006800F00100009000980F
:1026B0000C2001900220CDE90202032004900720A3
:1026C000059001F5DE3001A9FEF702F806B080BDE5
:1026D000FEE7000070B50368044653F8140F400786
:1026E00011D40E46481C29D086BB00BF186840058F
:1026F00027D4FEF7C3F8236853F8140F400737D5E3
:1027000018684007F2D5002070BD00BF1868400768
:10271000F9D41868400514D418684007F3D4186831
:1027200040050ED418684007EDD41868400508D459
:10273000186840074FF0000048BF70BD186840059A
:10274000E4D56FF480601860042012E0154603E0C1
:1027500053F8140F4007D6D418684005F1D4FEF79B
:102760008DF8401B2368B042F2D958694007EFD476
:10277000202000212022216384F83D2084F83E108F
:10278000226C10432064012084F83C1070BD0000CE
:102790002DE9F041054600681E46144601F47F020B
:1027A00001338FB242D0DDF81880B2F5803F40F09F
:1027B000878040693840C01BB0FA80F04009A042D1
:1027C00040F0C8804EB924E040693840C01BB0FAE0
:1027D00080F04009A04240F0BD80FEF74FF8A0EB2A
:1027E00008012868B142EFD941693940C91BB1FAE3
:1027F00081F14909A142E7D19BE000BF406938401F
:10280000C01BB0FA80F04009A0424FF0000040F039
:10281000A280FEF733F8286841693940C91BB1FA34
:1028200081F14909A142E9D183E000BFB2F5803FBF
:1028300024D100BF41693940C91BB1FA81F149096E
:10284000A14240F0878041693940C91BB1FA81F14A
:102850004909A14240F07E8041693940C91BB1FA63
:1028600081F14909A14275D141693940C91BB1FAC9
:1028700081F14909A142DDD06CE000BF8169394096
:10288000C91BB1FA81F14909A14263D1816939407B
:10289000C91BB1FA81F14909A1425BD18169394073
:1028A000C91BB1FA81F14909A14253D1816939406B
:1028B000C91BB1FA81F14909A142DFD04AE000BF4A
:1028C00080693840C01BB0FA80F04009A04241D175
:1028D00046B923E080693840C01BB0FA80F0400957
:1028E000A04237D1FDF7CAFFA0EB08012868B1422A
:1028F000F0D981693940C91BB1FA81F14909A14276
:10290000E8D116E080693840C01BB0FA80F0400979
:10291000A0424FF0000018BFBDE8F081FDF7AEFF08
:10292000286881693940C91BB1FA81F14909A1427E
:10293000E8D100202021286385F83D1085F83E006D
:10294000296C41F02001296485F83C000120BDE894
:10295000F08100BF0020BDE8F0810000F0B581B03B
:10296000044600681D4643698FB203EA0701B94275
:1029700002D1002001B0F0BD4169164601323CD0C1
:10298000490512D47EB300BFFDF778FF411B2068D4
:10299000B14203D941693940B9422BD1416939402B
:1029A000B942E6D041694905EED5016841F40071AC
:1029B00001606FF4806141610420002120222163C5
:1029C00084F83D2084F83E10226C1043206484F883
:1029D0003C10012001B0F0BD41693940B942C8D076
:1029E00041694905E1D4FDF749FF20684169394053
:1029F000B942F1D02020E0E741694905D5D44169C9
:102A00003940B942B5D041694905CED44169394010
:102A1000B942AED041694905C7D441693940B9428C
:102A2000A7D041694905C0D441693940B942E3D1D1
:102A30009FE7000070B50368044653F8140F0006C2
:102A400011D40E46481C29D086BB00BF186840052B
:102A500027D4FDF713FF236853F8140F000637D56A
:102A600018680006F2D5002070BD00BF1868000687
:102A7000F9D41868400514D418680006F3D418680F
:102A800040050ED418680006EDD41868400508D437
:102A9000186800064FF0000048BF70BD1868400578
:102AA000E4D56FF480601860042012E0154603E05E
:102AB00053F8140F0006D6D418684005F1D4FDF77A
:102AC000DDFE401B2368B042F2D958690006EFD4FE
:102AD000202000212022216384F83D2084F83E102C
:102AE000226C10432064012084F83C1070BD00006B
:102AF00080B541F62C2040F26001C2F20000C2F223
:102B00000001002201F028F8002818BFFDF7C8FDD9
:102B100041F62C2040F29001C2F20000C2F2000106
:102B200001F082FA002818BFFDF7BAFD41F62C200B
:102B300040F22C11C2F20000C2F2000100F032FD9E
:102B4000002818BFFDF7ACFD41F62C20C2F20000B2
:102B500001F094FA002808BF80BDBDE88040FDF771
:102B60009FBD0000FEE70000FEE7000041F65C505C
:102B7000C2F20000FEF7C4BB7047000080B50246F9
:102B8000002840F20820C2F200004FF4806118BF14
:102B9000FF22FDF75CFC80BD40F2C012C2F20002D1
:102BA00050809180704700002DE9F04182B041F6DD
:102BB0000850C2F200007821012244F62063FDF79C
:102BC00015FF4FF0000418B1204602B0BDE8F081B7
:102BD00041F608554FF42E40C2F20005ADF806004C
:102BE0000A260DF106022846782102230096FEF7F8
:102BF00007F84FF400580DF1060228467821022309
:102C0000ADF806800096FDF7FBFF4FF480570DF1FD
:102C10000602284678210223ADF806700096FDF7DB
:102C2000EFFF4FF43040ADF806000DF106022846E4
:102C3000782102230096FDF7E3FF4FF44840ADF8FA
:102C400006000DF106022846782102230096FDF7C2
:102C5000D7FF0DF10602284678210223ADF8064081
:102C60000096FDF7CDFF0DF10602284678210223DC
:102C7000ADF806700096FDF7C3FF4FF48040ADF845
:102C800006000DF106022846782102230096FDF782
:102C9000B7FF4FF40140ADF806000DF106022846DB
:102CA000782102230096FDF7ABFF4FF47F40ADF88B
:102CB00006000DF106022846782102230096FDF752
:102CC0009FFF4FF42140ADF806000DF106022846A3
:102CD000782102230096FDF793FF4FF42640ADF8CC
:102CE00006000DF106022846782102230096FDF722
:102CF00087FF4FF42840ADF806000DF10602284684
:102D0000782102230096FDF77BFF4FF47C50ADF84D
:102D100006000DF106022846782102230096FDF7F1
:102D20006FFF4FF42440ADF806000DF1060228466F
:102D3000782102230096FDF763FF4FF45340ADF86E
:102D400006000DF106022846782102230096FDF7C1
:102D500057FF0DF10602284678210223ADF8064000
:102D60000096FDF74DFF4FF45540ADF806000DF10C
:102D700006022846782102230096FDF741FF4FF412
:102D80007040ADF806000DF10602284678210223B6
:102D90000096FDF735FF4FF45940ADF806000DF1F0
:102DA00006022846782102230096FDF729FF4FF4FA
:102DB0000850ADF806000DF10602284678210223DE
:102DC0000096FDF71DFF4FF45A40ADF806000DF1D7
:102DD00006022846782102230096FDF711FF4FF4E2
:102DE0009050ADF806000DF1060228467821022326
:102DF0000096FDF705FF4FF45B40ADF806000DF1BE
:102E000006022846782102230096FDF7F9FE0DF10F
:102E10000602284678210223ADF806800096FDF7C9
:102E2000EFFE4FF40D40ADF806000DF10602284606
:102E3000782102230096FDF7E3FE4FF4A050ADF891
:102E400006000DF106022846782102230096FDF7C0
:102E5000D7FE4FF42F40ADF806000DF106022846CC
:102E6000782102230096FDF7CBFE4FF43850ADF8E1
:102E700006000DF106022846782102230096FDF790
:102E8000BFFE40F20820C2F200004FF48061FDF75F
:102E9000E6FA00F0B5F840F2C010C2F20000C0F847
:102EA00002400124204602B0BDE8F0812DE9F04F38
:102EB00089B040F2C014C2F20004B4F802E091F804
:102EC00000C00CEB0E037F2B06D8B4F804804E78BC
:102ED00006EB08033F2B03D9002009B0BDE8F08FB3
:102EE000002E009064D023782038B3FA83F3029048
:102EF00058094B6800270193831AB3FA83F30790AC
:102F000058096346002A18BF012208920690CDE9AD
:102F1000038103E000230137B74249D2002BF9D0E7
:102F200008EB0705ACB23F2CF5D80298019A704324
:102F300002EB400030F8179005F00700012202FA7A
:102F400000F64FF68070C0F2070091F800C000EA6A
:102F500005186FEA060A0025059702E00135654568
:102F60001ED20EEB05039BB27F2BF7D840F2082050
:102F700009FA05FB43EA0803C2F200005FEA0B41CD
:102F8000C25C0699DDE9077458BF84EA070102EACA
:102F90000A04002918BF42EA0604C454DEE700BF51
:102FA0000499DDF80C804E78059F6346B3E700BFB7
:102FB00040F2C0115EFA8CF0C2F2000148805DF868
:102FC000240BBDE8F08F00000378002B04BF002025
:102FD000704770B514460D46461C00BFD8B229464E
:102FE0002246FFF763FF16F8011C884204D116F849
:102FF000013B002BF2D10021BDE87040084670472C
:103000002DE9F04FC1B00DF1040B41F608560BF15C
:1030100001094FF000086FF07F050A24C2F2000694
:103020004FF0000A40F208208035C2F200002F184D
:103030004AF0B0008DF80500304678215A46022348
:103040008DF804800094FDF7DBFD304678215A4668
:103050000223ADF804800094FDF7D2FD4FF48050B8
:10306000ADF80400304678215A4602230094FDF75B
:10307000C7FD40208DF80400484639468022FDF700
:10308000A1F9304678215A4681230094FDF7B8FD16
:10309000B5F5607F0AF1010AC4D141B0BDE8F08FF7
:1030A00070470000FDF7D4BE70B592B006AC204664
:1030B0003021FDF7D4F9002543F640000595CDE910
:1030C0000355CDE901550095C4F2020001680226BE
:1030D00041F080510160006800F08050009000983D
:1030E00047F200000095C4F20000016841F48041FD
:1030F0000160006800F48040009000980120069074
:103100004FF4803007904FF480000D9004200E9013
:10311000A820CDE90F060720119020460C96FFF756
:1031200081F818B172B600BFFEE700BF0F20CDE9ED
:1031300001064FF4A05004904FF48050059001A870
:1031400005210395FEF758FF10B172B6FEE700BFE8
:1031500012B070BD4EF68850CEF20000016841F406
:103160007001016070470000B0B50446006804F1CA
:1031700008030ECB0569194325F440552A43026123
:103180006269E3691143C268194349F20C639A43C7
:103190001143C1604169A26921F4407141F20043C9
:1031A000114340F48062C4F201039A42416103D1A9
:1031B000FEF7EEFF02E000BFFEF7D6FFE1694FF633
:1031C0009C7563681922C0F6FF75B1F5004FA0FB2E
:1031D00002011FD15A00DB0FFDF77CF848F21F51A6
:1031E000C5F2EB11A0FB01235A0905F1805302FB44
:1031F0000300322303EBC000A0FB01014FF4F87081
:1032000000EA111000EB0210C1F3421108442168DA
:103210008860B0BD9A009B0FFDF75CF848F21F5123
:10322000C5F2EB11A0FB01235A0902FB0500322372
:1032300003EB0010A0FB0101F02000EA511000EBAD
:103240000210C1F34311084421688860B0BD00003A
:10325000D0F8D42200EB820CDCF8C032002B04BF83
:1032600003207047B0B501F00F0404EB840200EBBB
:10327000820E5EF8182F5AB1D0F8C85204EBC4047D
:1032800005EB8404E469B2FBF4F505FB14229AB162
:103290000020C3F81402DCF8C422D2F810C0BCF13C
:1032A000000F08BFB0BDD3F808020A4603F5047149
:1032B000E0470020B0BD00BF00220023CEF8002070
:1032C00000F094FE0020B0BDB0B5D0F8D42200EBE1
:1032D0008202D2F8C0529DB1044600F01FFDD4F81E
:1032E000D412C5F80C0204EB8101D1F8C412D5F850
:1032F0000402CA6805F5037190470020B0BD00BF05
:103300000320B0BD70B58121044600F04DFC0025BE
:1033100020460121258700F047FC20468221A4F8A1
:10332000785100F041FCD4F8D402E56404F530761D
:1033300056F8201089B104EB8000D0F8C402406830
:103340008047D4F8D40256F8200001F04BF9D4F8A5
:10335000D40246F82050C4F8BC52002070BD0000D2
:1033600010B5D0F8D41200EB8100D0F8C0428CB177
:10337000D0F8C41259B194F80002FF2807D08B6826
:1033800094F8012221469847FF2084F8000200208B
:1033900010BD00BF032010BD014640F20C100A22F0
:1033A000C2F200000A807047F0B581B040F2C80751
:1033B000C2F2000704463846822100F00BFB0646A5
:1033C0003846012100F006FB05463846812100F011
:1033D00001FB002E1CBF1021B171002D1CBF40212C
:1033E000A98000281CBF40218180432140F2C800F1
:1033F000C2F20000218001B0F0BD0000F0B581B044
:1034000040F2C807C2F2000704463846822100F0A5
:10341000E1FA06463846012100F0DCFA0546384656
:10342000812100F0D7FA002E1CBF1021B171002DB0
:103430001CBF4FF40071A98000281CBF4FF400711D
:103440008180432140F2C800C2F20000218001B017
:10345000F0BD0000F0B581B040F2C807C2F200072D
:1034600004463846822100F0B5FA06463846012166
:1034700000F0B0FA05463846812100F0ABFA002E84
:103480001CBF1021B171002D1CBF4021A980002854
:103490001CBF40218180432140F2C800C2F20000DD
:1034A000218001B0F0BD00002DE9F04104464FF449
:1034B000077001F099F8002850D04FF407710546C5
:1034C000FCF7CDFFD4F8D402402704EB8000C0F80D
:1034D000C052207CC4F8BC52002808BF4FF40077CB
:1034E0002046812102223B46022600F095FC4FF047
:1034F00001082046012102223B46A4F8388000F052
:103500008BFC1020A4F84E002046822103220823C1
:10351000A4F8788100F080FCD4F8D4020027C5F824
:10352000047204EB8000D0F8C402A4F84C80006858
:103530008047C5F81472C5F81872D5F8042252B144
:10354000207C01210028204614BF40234FF4007343
:1035500000F076FC00263046BDE8F081D4F8D402B5
:10356000002104EB8000C0F8C0120220BDE8F08109
:10357000D0F8D41200EB8101D1F8C012002904BFA9
:103580000320704780B590F810C0D1F80422402382
:103590000121BCF1000F08BF4FF4007300F050FC94
:1035A000002080BD00290FBF0320D0F8D42200EBFB
:1035B0008200C0F8C41218BF00207047D0F8D4228F
:1035C00000EB8200D0F8C00200280EBF0320C0F834
:1035D0000412002070470000D0F8D43200EB8300C2
:1035E000D0F8C00200280FBF0320C0F80812C0F8AE
:1035F0001022002070470000F0B581B0D0F8D4222E
:1036000000EB8203D3F8C0420022002C8DF8032087
:10361000ADF8002060D00D7815F0600218D0202A97
:1036200058D1CA88002A29D06DB2B5F1FF3F2FDDED
:103630004978402A84F80012214628BF402284F8A5
:10364000012200F077F80024204601B0F0BD00BF51
:103650004A780B2A3ED80024DFE802F008063C3CFA
:103660003C3C3C3C3C3C2A38EEE700BF90F89C22B6
:10367000032A2FD16946022221E000BFD3F8C402F9
:1036800000228368487800249847204601B0F0BDA6
:10369000D3F8C43206469D684B780F46184621463B
:1036A000A847FA883046072A28BF0722214606E0A5
:1036B00090F89C22032A0DD10DF10301012200F0A4
:1036C00053F80024204601B0F0BD00BF90F89C22C2
:1036D000032AB9D000F022F80324204601B0F0BD3F
:1036E00080B5D0F8B82252689047002818BF032050
:1036F00080BD0000002070470020704780B5134651
:103700000A46002100F09CFB002080BD80B51346D6
:103710000A46002100F06AFC002080BD10B580211F
:10372000044600F031FC20460021BDE8104000F0C6
:103730002BBC000080B513460A460321C0F8941242
:103740000021C0E9563300F07BFB002080BD000063
:1037500080B50521C0F8941200210022002300F05A
:103760006FFB002080BD000080B513460A46022191
:10377000C0F894120021C0E9063300F037FC0020A5
:1037800080BD000080B50421C0F894120021002201
:10379000002300F02BFC002080BD000010B540F29B
:1037A0000C64C2F200040A4602A0214600F054F95B
:1037B000204610BD43444320436F6E666967000096
:1037C00040F218101222C2F200000A807047000076
:1037D00010B540F20C64C2F200040A4602A0214671
:1037E00000F03AF9204610BD43444320496E746509
:1037F000726661636500000040F240100422C2F26C
:1038000000000A807047000010B540F20C64C2F25C
:1038100000040A4602A0214600F01EF9204610BD11
:1038200053544D6963726F656C656374726F6E6932
:103830006373000010B540F20C64C2F200040A4643
:1038400002A0214600F008F9204610BD53544D3324
:1038500032205669727475616C20436F6D506F72BF
:103860007400000047F61020C1F6FF7002688368FC
:103870004FF01A0C9B18A1F800C000F0A680B0B55C
:103880004FF0370C1A0F0CEB13714068B3F1204F57
:1038900038BF02F1300140F24412C2F200029170CE
:1038A00019014FF0000E0CEB117582F803E0C3F321
:1038B0000364B1F1204F38BF04F1300519021571CE
:1038C0000CEB117582F805E0C3F30354B1F1204FFE
:1038D00038BF04F13005190395710CEB117582F8AE
:1038E00007E0C3F30344B1F1204F38BF04F13005C2
:1038F000190415720CEB117582F809E0C3F3033457
:10390000B1F1204F38BF04F13005190595720CEB69
:10391000117582F80BE0C3F30324B1F1204F38BFD7
:1039200004F1300519061573C3F303140CEB11757C
:10393000B1F1204F4FEA037103F00F0382F80DE05D
:1039400038BF04F1300503F13704957382F80FE0B6
:10395000B1F1204F38BF03F13004010F0CEB1073AD
:10396000147482F811E0B0F1204F38BF01F1300338
:1039700001010CEB1174937482F813E0C0F303633C
:10398000B1F1204F38BF03F1300401021475C0F3C8
:1039900003530CEB1174B1F1204F4FEA003182F860
:1039A00015E038BF03F130040CEB1173947582F805
:1039B00017E0C0F30340B1F1204F38BF00F13003EE
:1039C000137682F819E0BDE8B04040F24410C2F22C
:1039D00000007047B0F802C003789C459CBF0020EF
:1039E000704780B508E000BF82788A4208BF80BD7A
:1039F00073449AB262452DD290F800E07044427848
:103A0000052A02D182788A4225D073449AB262454F
:103A100020D290F800E070444278052A02D18278E2
:103A20008A4218D073449AB2624513D290F800E0EB
:103A300070444278052A02D182788A420BD07344BE
:103A40009AB2624506D290F800E070444278052AA6
:103A5000CAD0CDE7002080BD002808BF704710B550
:103A600003783BB300F1020EF44600BF1CF8013CA2
:103A70005BB19CF8003043B19CF801302BB19CF84D
:103A800002300CF1040C002BF0D14FF0000C00BF01
:103A90001EF8013C93B19EF800309BB19EF80130B6
:103AA000A3B19EF802300CF1040C002B0EF1040EB1
:103AB000EED10DE04FF0000C0AE000BF4CF0010C1D
:103AC00006E000BF4CF0020C02E000BF4CF0030C1B
:103AD0005FFA8CFC022303EB4C03138003220B7070
:103AE0004A700378A3B3023002224FF0000C00BFEB
:103AF0005FFA82FE51FA82F401F80E3084F801C0B8
:103B000010F8013C23B3941C5FFA84FE51FA84F44C
:103B100001F80E3084F801C00378CBB1141D5FFAB0
:103B200084FE51FA84F401F80E3084F801C0437821
:103B300073B1941D5FFA84FE51FA84F401F80E30DB
:103B400084F801C083780832002B00F10400CFD143
:103B5000BDE8104070470000002804BF03207047F4
:103B60000023C0F8B832C0F8C4320029C0F8D032FF
:103B700018BFC0F8B412012180F89C12027000F046
:103B8000D1B8000080B5D0F8C802FDF7CDFA40F2F8
:103B90000032C100C0F2013222FA01F1032888BFCD
:103BA0000321C8B280BD000080B5D0F8C802FDF77F
:103BB00093FA40F20032C100C0F2013222FA01F160
:103BC000032888BF0321C8B280BD0000B0B589B109
:103BD00090F89C22032A52D1D0F8B8225269002AC8
:103BE0004DD00023C0F8D4329047002808BF0020F1
:103BF000B0BD00BFD0F89412022939D1D0E9071323
:103C000099420DD9CB1A11461A46C3610446FFF7F3
:103C10007DFD204600210022002300F011F926E05E
:103C200010D182698A420DD3D0F898128A4209D203
:103C30000021002204460025FFF768FDC4F89852D1
:103C4000E7E700BF90F89C12032909D1D0F8B81219
:103C5000C96829B10022C0F8D4220446884720460A
:103C60008021044600F090F92046FFF771FD2046C0
:103C700090F8A01200291CBF002180F8A01200209B
:103C8000B0BD000010B579B190F89C22032A1DD177
:103C9000D0F8B8229269CAB10023C0F8D432904754
:103CA000002808BF002010BDD0F8941203290DD1C0
:103CB000D0E9571399420BD9C91AC0F85C1199423F
:103CC00038BF0B4611461A46FFF718FD002010BDFD
:103CD00090F89C12032909D1D0F8B812096929B1CA
:103CE0000022C0F8D422044688472046FFF74AFD48
:103CF000002010BD00207047012180F89C12D0F8F0
:103D0000B812002904BF0020704780B54A680179C5
:103D10009047002818BF032080BD0000D0F8C802DB
:103D2000FDF732BA017809B10020704710B541F6AD
:103D30005C51C2F20001C1F8E004C0F8C8124FF0B3
:103D4000A0400860042008714FF40070C880022071
:103D5000C1F809000020C8810846FDF75DFF002872
:103D600018BFFCF79DFC41F65C54C2F200042046EB
:103D70008021FDF727F9204600214022FDF726F992
:103D8000204601218022FDF721F9BDE810400020E6
:103D900070470000D0F8C80201F07F034AB203EB7D
:103DA000C30301EBC10100EB830300EB810000F2D0
:103DB0005620002A48BF03F1160000787047000023
:103DC000D0F8D42200EB8202D2F8B822002A04BF35
:103DD0000320704790F89C32032B05D1126A1AB168
:103DE00080B59047002080BD00207047D0F8D422D5
:103DF00000EB8202D2F8B822002A04BF03207047E9
:103E000090F89C32032B05D1526A1AB180B59047C5
:103E1000002080BD0020704780B59446D0F8C802CD
:103E20001A466346FDF7BAF940F20032C100C0F20B
:103E3000013222FA01F1032888BF0321C8B280BDF4
:103E400080B5D0F8C802FDF7E3F940F20032C100B6
:103E5000C0F2013222FA01F1032888BF0321C8B25F
:103E600080BD0000F0B581B00126002580F89C627D
:103E7000C0F8945204464560D0F8B802C4F8A45281
:103E800084F8A05240B1426832B1204600219047E8
:103E90000546002818BF03252046002100224023A4
:103EA0004027FFF7B9FF2046802100224023A4F8D5
:103EB0006461C4F86071FFF7AFFFA68428462762EB
:103EC00001B0F0BD90F89C12042904BF90F89D1237
:103ED00080F89C120020704790F89C12032908D1AA
:103EE000D0F8B81229B1C96919B180B58847BDE8C1
:103EF0008040002070470000024600201174704787
:103F000080B5D0F8C802FEF721F840F20032C100B7
:103F1000C0F2013222FA01F1032888BF0321C8B29E
:103F200080BD0000B0B500F2AA240546204600F08E
:103F30006FF80121C5F8941295F8AA12B5F8B032BD
:103F400001F01F02022AC5F898320FD0012A07D0CB
:103F500092B928462146BDE8B04000F091B800BFB4
:103F600028462146BDE8B04000F000BB2846214667
:103F7000BDE8B04000F046BA01F080012846BDE837
:103F8000B04000F001B8000080B5D0F8C802FDF7DD
:103F900061F940F20032C100C0F2013222FA01F1AF
:103FA000032888BF0321C8B280BD000080B5D0F8C7
:103FB000C802FDF7E7FF40F20032C100C0F2013253
:103FC00022FA01F1032888BF0321C8B280BD000096
:103FD000014690F89C02042204281CBF91F89C0220
:103FE00081F89D02002081F89C22704780B5D0F8AE
:103FF000C802FDF767F940F20032C100C0F2013299
:1040000022FA01F1032888BF0321C8B280BD000055
:104010000A7802704A7842704A8842808A88828090
:10402000C988C1807047000010B582B004460020E6
:10403000ADF80600B1B1D4F8D42204F52E70C4F85E
:10404000B81250F82200C16A21B10DF1060088476C
:10405000C4F8D002D4F8D8020130C4F8D802002045
:1040600002B010BD032002B010BD0000D0F8B8228D
:10407000002A04BF0020704712681047FFF796BF60
:1040800070B582B00A7812F060020FD0402A02D0D8
:10409000202A40F0D780D0F8D42200EB8202D2F858
:1040A000B822926802B0BDE8704010474A78092AE9
:1040B00000F2C880DFE802F00630C658C66284C647
:1040C0001C4200BF90F89C22013A022A00F2BA80FA
:1040D000C988022940F0B680D0F8A4120322002932
:1040E00008BF0122014641F80C2F02226CE100BFFB
:1040F000C988012940F0A68090F89C124A1E022A25
:1041000080F09A800024014641F8084F0122FFF711
:104110002BFB204602B070BD90F89C22013A022A87
:1041200000F2908049880024012940F09480C0F872
:10413000A442FFF727FB204602B070BD498840F239
:104140000865C2F2000511F0FE0F297052D08021DF
:104150000446FFF719FF20460021FFF715FF03244F
:10416000204602B070BD00BF4A88022A60D0012AF2
:1041700068D10121C0F8A4122FE100BF8A88002A6B
:1041800060D1CA88002A5DD14D887F2D5AD890F819
:104190009C12032956D0E9B280F89E520446FFF7DC
:1041A000AFFE20462646FFF7EDFA002D14BF022091
:1041B000012086F89C020024204602B070BD00BF9A
:1041C0004A884FF0FF3303EB12230026062BADF88D
:1041D000066000F2FF80DFE813F007004F004100A7
:1041E000FD00FD005F006D000D46D0F8B4120A68B6
:1041F000D9E000BF90F89C22032A6BD0022A40F03D
:1042000091800A0600F0E98001F00102C9B2426023
:104210000546FFF72BFF002800F0A680044628463D
:104220008021FFF7B1FE28460021FFF7ADFE73E0C5
:10423000497980F8A012D0E0032903D1011D0122A1
:10424000C2E000BF80210446FFF79EFE2046002109
:104250000024FFF799FE204602B070BDD2B2052AB5
:1042600000F2B880DFE802F004968E928A9A00BFCE
:10427000D0F8B422526894E00D46017C0446D0F890
:10428000B80200290CBF816AC16A0DF10600884797
:10429000014602201CE000BF027C002A40F09A8008
:1042A0000446D0F8B8020D46416B0DF10600884770
:1042B0007EE000BF027C002A40F08C800446D0F8EB
:1042C000B8020D46016B0DF1060088470146072034
:1042D00048706EE00A0635D0426801F001018A425A
:1042E00000F07B80D1B20446FFF7FAF92978204626
:1042F00061602546FFF7BAFE002800F08180044681
:1043000028468021FFF740FE28460021FFF73CFEAB
:1043100029792846FFF7E4F9022085F89C02204617
:1043200002B070BD80210446FFF72EFE204600211A
:10433000FFF72AFE29782046FFF7D2F9032420460A
:1043400002B070BD022201F0010180F89C224160A0
:10435000002105460024FFF7C3F92846FFF712FAAB
:10436000204602B070BD00BF2846FFF70BFA0320BD
:1043700085F89C020024204602B070BDD0F8B4221B
:1043800052690EE0D0F8B422D2680AE0D0F8B42224
:10439000126906E0D0F8B422926802E0D0F8B422A4
:1043A0009269BAB10D460446007C0DF106019047B2
:1043B0000146EA8882B1BDF80630ABB1934238BFFE
:1043C0001A46ADF806202046FFF7CEF90024204615
:1043D00002B070BD044608E02046FFF7D3F9002480
:1043E000204602B070BD00BF20468021FFF7CCFD03
:1043F00020460021FFF7C8FD0024204602B070BD12
:104400002846EAE770B50A780D46097912F060028D
:1044100004460BD0402A01D0202A3CD12046FFF789
:1044200069F9002855D0002070BD00BF687848B3F6
:10443000012815D003282ED194F89C02032813D10B
:10444000688838B911F07F0004D0E88810B9204698
:10445000FFF79AFD2046FFF795F9002070BD00BFD9
:1044600094F89C02032821D0022814D1480612D0C7
:104470002046FFF789FD20468021FFF785FD0020BB
:1044800070BD00BF94F89C0203282FD0022808BFFB
:104490005FEA416050D020468021FFF775FD20463D
:1044A0000021FFF771FD002070BD00BF6888002863
:1044B000B9D10E46480603D020463146FFF762FBCD
:1044C0002046FFF75FF920463146FFF713F9002831
:1044D000A9D1D4F8B80282680020002AC4F8D40216
:1044E000A1D020462946BDE87040104701F00F00DA
:1044F00000EB8000802904EB80002CBF808CB0F89A
:1045000064010028C7D001F07F0000EB800004EBBD
:10451000800000F1140501EB810004EB800080298C
:1045200038BF00F5AA75480616D02046FFF732FCC2
:10453000002818BF012010E008064FF0140058BFF3
:104540004FF4AA7000222118225020460222FFF7C1
:104550000BF9002070BD00BF0020286020462946CE
:104560000222FFF701F9002070BD0000B0B50A7803
:1045700012F0600218BF402A10D190F89C22013A34
:10458000022A0DD88A8812F0FE0F09D10C46D1B24A
:104590000546FFF7B1F878B10320B0BD202AECD072
:1045A00080210446FFF7F0FC204600210024FFF79D
:1045B000EBFC2046B0BD00BFD5F8B8128A68002ACF
:1045C000EAD000212846C5F8D41221469047E18858
:1045D0000446002908BF002CEBD12846FFF7D2F88B
:1045E0000020B0BD7047000040F60C00C2F2000091
:1045F0007047000010B50A784B78D0F81CE802F03C
:104600000F04012B4FEA421C18D10123A34043EAB7
:104610000E03C0F81C386044D0F800391B0428D4BD
:104620008B6800F51060097904686FF3DF2343EAB3
:10463000814144EA8252114316E000BF4FF48032B8
:10464000A24042EA0E02C0F81C286044D0F8002BB9
:1046500012040ED48A6800F5306009796FF3DF2206
:10466000036842EA8141194341F0805141F400411D
:104670000160002010BD00000146D0F8000940F2A2
:10468000FF729043C1F80009D1F8040840F4807229
:104690000020C1F80428704782B002F47F42B2F5CE
:1046A000807F40F07F80826B4FF6BF7322F48032B0
:1046B0008263C268CFF6BD731A40C260029BC268B3
:1046C000DBB222F44012012BC26003D1C26842F473
:1046D0008012C26000220092009A01320092009A79
:1046E000B2F1706F00F2BE800269002A21D4009AF4
:1046F00001320092009AB2F1706F00F2B380026949
:10470000002A16D4009A01320092009AB2F1706F1A
:1047100000F2A8800269002A0BD4009A01320092AC
:10472000009AB2F1706F00F29D800269B2F1FF3F12
:10473000D2DC00220092026942F001020261009A7A
:1047400001320092009AB2F1706F00F28B80026920
:10475000D2071ED0009A01320092009AB2F1706F17
:1047600000F280800269D20713D0009A01320092D1
:10477000009AB2F1706F75D80269D20709D0009A19
:1047800001320092009AB2F1706F6BD80269D207C1
:10479000D5D14FF0000C01F47F01B1F5803F40F01E
:1047A000818077E0C26842F04002C260002201923C
:1047B000019A01320192019AB2F1706F5AD80269DE
:1047C000002A1ED4019A01320192019AB2F1706F4F
:1047D00050D80269002A14D4019A01320192019A38
:1047E000B2F1706F46D80269002A0AD4019A0132E8
:1047F0000192019AB2F1706F3CD80269B2F1FF3FA9
:10480000D6DC00220192026942F001020261019AA3
:1048100001320192019AB2F1706F2BD80269D2076E
:104820001DD0019A01320192019AB2F1706F21D824
:104830000269D20713D0019A01320192019AB2F1B2
:10484000706F17D80269D20709D0019A013201921C
:10485000019AB2F1706F0DD80269D207D7D14FF02B
:10486000000C09E04FF0030C01F47F01B1F5803F2B
:1048700018D10FE04FF0030C826B13F47F4F14BF7D
:1048800022F4803242F48032826301F47F01B1F578
:10489000803F07D1816841F006018160816841F065
:1048A00020018160604602B07047000010B54A7870
:1048B00091F800E047F6000CCEF6334C012A4FEA9F
:1048C0004E1227D10244D2F8001902F51063B1F15B
:1048D000FF3F4FF0010407DC196841F000611960E7
:1048E000196841F0804119600EF00F01D0F83C28A2
:1048F00004FA01F18A43C0F83C28D0F81C2822EAC7
:104900000101C0F81C18186800EA0C0100201960A9
:1049100010BD00BF811801F53063D1F8001B0CF108
:10492000707CB1F1FF3F4FF48034DDDCD4E7000050
:104930000146D0F8000E20F00300C1F8000ED1F8B7
:10494000040820F002020020C1F80428704700008B
:104950000146D0F8000E20F00300C1F8000ED1F897
:10496000040840F002020020C1F80428704700004B
:104970002DE9F04F86B0C3F3074516468E46002159
:10498000C0F80411C0F80811C0F80C11C0F81011DB
:10499000C0F81411C0F81811C0F81C11C0F820118B
:1049A000C0F82411C0F82811C0F82C11C0F830113B
:1049B000C0F83411C0F83811C0F83C1145B1816B12
:1049C00021F400118163816B41F4002111E000BFEB
:1049D000D0F8041841F00201C0F80418816B41F4CA
:1049E00000118163816B21F400218163816B21F4CB
:1049F000802106F47F4281630021B2F5807FC0F8F8
:104A0000001E07D1D0F80028B1EB1E6F08D1C0F806
:104A1000002809E0D0F8001841F0030102E000BFCF
:104A200042F00101C0F800180021049104990131FD
:104A300004910499B1F1706F52D8016900291ED414
:104A40000499013104910499B1F1706F48D801695A
:104A5000002914D40499013104910499B1F1706FC3
:104A60003ED8016900290AD40499013104910499BE
:104A7000B1F1706F34D80169B1F1FF3FD6DC00218C
:104A800004914FF484610161049901310491049906
:104A9000B1F1706F24D8016989061DD504990131DF
:104AA00004910499B1F1706F1AD80169890613D580
:104AB0000499013104910499B1F1706F10D8016922
:104AC000890609D50499013104910499B1F1706FF7
:104AD00006D801698906D7D44FF0000A02E000BF6A
:104AE0004FF0010A002105910599013105910599C1
:104AF000B1F1706F4ED8016900291ED405990131BA
:104B000005910599B1F1706F44D80169002914D459
:104B10000599013105910599B1F1706F3AD8016994
:104B200000290AD40599013105910599B1F1706FF9
:104B300030D80169B1F1FF3FD6DC00210591102189
:104B400001610599013105910599B1F1706F21D885
:104B50000169C90620D50599013105910599B1F181
:104B6000706F17D80169C90616D5059901310591ED
:104B70000599B1F1706F0DD80169C9060CD5059979
:104B8000013105910599B1F1706F03D80169C9062A
:104B9000D7D401E04FF0010A5FFA8EF94FF0000818
:104BA000B9F1000FC0F81088C0F81488C0F81C884C
:104BB00000F00D81CDF80CA0CDE9015ED0F8001910
:104BC0004FF0006404EA11114FF67F35B9F1010B83
:104BD000C0F80019C0F81089C0F8085974D0A9F1BC
:104BE000020103290BF0030A04D20121BAF1000FDC
:104BF00040D169E000962BF0030700F5186600230A
:104C00004FF0904C4FF67F324FF0000E56F8601C7C
:104C10000EF1040E0CEAE17146F8601C46F8503CB7
:104C200046F8582C56F8401C77450CEAE17146F8D6
:104C3000401C46F8303C46F8382C56F8201C0CEA4C
:104C4000E17146F8201C46F8103C46F8182C3168F3
:104C50000CEAE17131603361B26006F18006D5D1B2
:104C6000009E0EF101014FF67F354FF00064BAF15E
:104C7000000F29D000F510634F01B446DE594FF004
:104C8000904202EAE67603EB4111DE5166460027C8
:104C90004FF67F33BAF1010F0F618B6014D00E6AAB
:104CA000BAF1020F02EAE67266460A620F638B628D
:104CB0000AD00A6C4FF0904303EAE2720A640022C1
:104CC0000A654FF67F328A64D0F8001BBBF1000FF3
:104CD00004EA1111C0F8001B4FF00001C0F8101BCE
:104CE000C0F8085BDDE9015EDDF80CA06FD0A9F12A
:104CF000020103290BF0030C04D20121BCF1000FC7
:104D00003BD164E0A94600962BF0030500F5386618
:104D100000234FF090474FF67F32002156F8604C49
:104D2000043107EAE47446F8604C46F8503C46F813
:104D3000582C56F8404C8D4207EAE47446F8404C33
:104D400046F8303C46F8382C56F8204C07EAE47414
:104D500046F8204C46F8103C46F8182C346807EA10
:104D6000E47434603361B26006F18006D6D1009EEF
:104D700001314D46BCF1000F29D000F530634F01E1
:104D80003446DE594FF0904202EAE67603EB4111D9
:104D9000DE51264600274FF67F33BCF1010F0F612D
:104DA0008B6014D00E6ABCF1020F02EAE67226464E
:104DB0000A620F638B620AD00A6C4FF0904303EAD9
:104DC000E2720A6400220A654FF67F328A64D0F8E4
:104DD00010181EF47F0F21F48071C0F810186FF0C6
:104DE0008041C0F81880416103D1816941F0100110
:104DF0008161816943F60002C8F23C02114316F456
:104E00007F0F816103D0816941F008018161012D2B
:104E100005D1816941F0804141F004018161504632
:104E200006B0BDE8F08F00000146806820F0010266
:104E300000208A6070470000D0F840C043F20B03A6
:104E4000C4F654739C4503D3D0F8003B002B1ED40A
:104E50000023C0F8103BD0F8103B012943F4002395
:104E6000C0F8103BD0F8103B43F01803C0F8103BDB
:104E7000D0F8103B43F0C043C0F8103B07D1C0F856
:104E8000142BD0F8001B41F08021C0F8001B00203B
:104E9000704700004A780B78012A4FEA4312104409
:104EA0000ED1D0F8002922F40012C0F800290979A7
:104EB00001F0FE01022914D100F510600DE000BFE1
:104EC000D0F8002B22F40012C0F8002B097901F071
:104ED000FE01022905D100F53060016841F08051E2
:104EE00001600020704700000A784B785101012BC7
:104EF000084407D1D0F80019002900F5106107D542
:104F00000BE000BFD0F8001B002900F5306104D48D
:104F10001AB1086820F080400860086840F4001268
:104F200000200A6070470000F0B54B78002591F82A
:104F300000C04FF6FF76CFF6F875012BCEF20706CC
:104F40002CD10C6900EB4C1EDEF81079002C0EF50C
:104F500010634FD03D401D611D69BCF1000F05EA93
:104F600006051D618E6800F09B80A519013DB5FB0B
:104F7000F6F50026C1F6F8761F6906EAC5463E43F7
:104F80001E610E79012E40F098801E6926F0C04601
:104F90001E614FF0C04606EA45758BE000EB4C13EE
:104FA000D3F8107B4FF6FF742F40C3F8107BD3F873
:104FB000107BC0F207043740C3F8107B8D680E6980
:104FC000BCF1000F03F530633CD0002E3ED07719C2
:104FD000013FB7FBF5F740F2000CBEB26E430E6224
:104FE000C1F6F87C1D690CEAC7472F4326401F61B4
:104FF00033E000BF07EA06041C611C6944F4002486
:105000001C611C6925400024012A1D615DD000F54A
:1050100010634FEA4C169F5947F004479F510F7990
:10502000012F33D1D0F80878F558FF054FF080579D
:1050300058BF4FF000572F43002AF75060D0002090
:10504000F0BD00BF002E18BF0D610D621F6905EA9B
:10505000040637431F614FF400261F69012A47EAFF
:1050600006071F6103D1CA68002A18BF5A6109796F
:1050700001293DD1D0F808081968C0054FF08050CB
:1050800058BF4FF00050084331E000BF002CD6D08D
:105090000CF00F01012202FA01F100F6340329E0BD
:1050A000B44205D90E614FF40025344602E000BF3A
:1050B0004FF400251E6935431D6125461E696FF3B7
:1050C000DF453543012A1D61A1D1CA69002A18BFF5
:1050D000CEF81429097901290AD1D0F80818DEF888
:1050E0000009C9054CBF40F0805040F000501860E6
:1050F0004FF004411868084318600020F0BD00BF5D
:10510000A2B2002A9BD0D61C4FF0FF33C96803EB34
:10511000960300F580504FEA0C32032BC6F381034F
:105120000ED3B70827F003060F68043E17504F68E8
:1051300017508F681750CF6801F110011750F3D145
:10514000002B3FF47CAF0F68012B87503FF477AF03
:105150004F68022B87503FF472AF8968815000205E
:10516000F0BD000081B0002200924A780978012A3F
:105170004FEA41113AD100F510625058B0F1FF3FAB
:105180003ADC885842F2107340F00060885088582A
:1051900040F080408850009801300090009898427C
:1051A00064D85058B0F1FF3F26DC009801300090E1
:1051B000009898425AD85058B0F1FF3F1CDC009834
:1051C000013000900098984250D85058B0F1FF3FFD
:1051D00012DC0098013000900098984246D8505850
:1051E000B0F1FF3F4FF00000D5DD3CE000F530624C
:1051F0005058B0F1FF3F03DD002001B0704700BF01
:10520000885842F2107340F000608850885840F08F
:10521000804088500098013000900098984225D82E
:105220005058B0F1FF3FE7DC009801300090009843
:1052300098421BD85058B0F1FF3FDDDC0098013098
:1052400000900098984211D85058B0F1FF3FD3DC3D
:105250000098013000900098984207D850580028D4
:105260004FF00000D6D401B0704700BF012001B05C
:10527000704700000146806840F0010200208A600B
:105280007047000081B000220092009A0132009223
:10529000009AB2F1706F51D80269002A1ED4009AA8
:1052A00001320092009AB2F1706F47D80269002A69
:1052B00014D4009A01320092009AB2F1706F3DD876
:1052C0000269002A0AD4009A01320092009AB2F1CF
:1052D000706F33D80269B2F1FF3FD6DC890100223A
:1052E0002031009201610099013100910099B1F1E2
:1052F000706F23D8016989061DD50099013100918D
:105300000099B1F1706F19D80169890613D5009918
:10531000013100910099B1F1706F0FD801698906D0
:1053200009D50099013100910099B1F1706F05D84C
:1053300001698906D7D4002001B07047032001B06D
:1053400070470000D0F8080800F0060180074FF011
:10535000020058BF0F20002908BF08467047000010
:10536000406900F001007047D0F81818D0F81C0808
:10537000084080B270470000D0F81818D0F81C0818
:105380000840000C70470000D0F810C8D0F834383E
:1053900001F00F0223FA02F2D20100EB4110D2B267
:1053A000D0F8080942EA0C010840704700EB4111AF
:1053B000D1F8081BD0F8140808407047416980698B
:1053C0000840704710B5930802F0030E2CD05A1E07
:1053D000032A03F0030C0FD323F003034FF480528E
:1053E0008458043B0C6084584C6084588C6084580A
:1053F000CC6001F11001F3D1BCF1000F14D04FF4D7
:10540000805284580B46BCF1010F43F8044B05D180
:105410001946BEF1000F0AD11EE000BF8258BCF150
:10542000020F4A601AD10831BEF1000F14D04FF4B8
:10543000805280580A46BEF1010F02F8010B04BFEA
:10544000104610BD020ABEF1020F4A7004BF881C4C
:1054500010BD000C88700331084610BD4FF4805217
:1054600082588A600C31BEF1000FE0D1F4E70000F1
:10547000B0B50446C068002920F0C040E06000F0EC
:105480009980012940F0B080E0680A2540F0005082
:10549000E0600A20FBF708F954F8140FC00740F049
:1054A0009C800A20FBF700F92068C00740F09E802E
:1054B0000A20FBF7F9F82068C00740F0A5800A2011
:1054C000FBF7F2F82068C00740F0AC800A20FBF739
:1054D000EBF82068C00740F0B3800A20FBF7E4F83F
:1054E0002068C00740F0BA800A20FBF7DDF820688A
:1054F000C00740F0C1800A20FBF7D6F82068C0073B
:1055000040F0C8800A20FBF7CFF82068C00740F0C1
:10551000CF800A20FBF7C8F82068C00740F0D6808B
:105520000A20FBF7C1F82068C00740F0DD800A20A0
:10553000FBF7BAF82068C00740F0E4800A20FBF7C8
:10554000B3F82068C00740F0EB800A20FBF7ACF806
:105550002068C00740F0F2800A20FBF7A5F8206819
:10556000C00740F0F9800A20FBF79EF82068C007CA
:1055700040F000810A20FBF797F82068C00740F050
:1055800007810A20FBF790F82068C00740F00E81E1
:105590000A20FBF789F82068C00740F016810A202E
:1055A000FBF782F82068C825A5F1C800B0FA80F0A2
:1055B0004009B0BDE0680A2540F08040E0600A2064
:1055C000FBF772F854F8140FC00706D00A20FBF757
:1055D0006BF82068C00711D11425A5F1C800B0FAF6
:1055E00080F04009B0BD00BF0120B0BD1425A5F179
:1055F000C800B0FA80F04009B0BD00BF0A20FBF738
:1056000053F82068C00707D11E25A5F1C800B0FADD
:1056100080F04009B0BD00BF0A20FBF745F82068C4
:10562000C00707D12825A5F1C800B0FA80F04009CD
:10563000B0BD00BF0A20FBF737F82068C00707D1CC
:105640003225A5F1C800B0FA80F04009B0BD00BF16
:105650000A20FBF729F82068C00707D13C25A5F1EF
:10566000C800B0FA80F04009B0BD00BF0A20FBF7C7
:105670001BF82068C00707D14625A5F1C800B0FA7D
:1056800080F04009B0BD00BF0A20FBF70DF820688C
:10569000C00707D15025A5F1C800B0FA80F0400935
:1056A000B0BD00BF0A20FAF7FFFF2068C00707D18E
:1056B0005A25A5F1C800B0FA80F04009B0BD00BF7E
:1056C0000A20FAF7F1FF2068C00707D16425A5F189
:1056D000C800B0FA80F04009B0BD00BF0A20FAF758
:1056E000E3FF2068C00707D16E25A5F1C800B0FA16
:1056F00080F04009B0BD00BF0A20FAF7D5FF20684E
:10570000C00707D17825A5F1C800B0FA80F040099C
:10571000B0BD00BF0A20FAF7C7FF2068C00707D155
:105720008225A5F1C800B0FA80F04009B0BD00BFE5
:105730000A20FAF7B9FF2068C00707D18C25A5F128
:10574000C800B0FA80F04009B0BD00BF0A20FAF7E7
:10575000ABFF2068C00707D19625A5F1C800B0FAB5
:1057600080F04009B0BD00BF0A20FAF79DFF206815
:10577000C00707D1A025A5F1C800B0FA80F0400904
:10578000B0BD00BF0A20FAF78FFF2068C00707D11D
:10579000AA25A5F1C800B0FA80F04009B0BD00BF4D
:1057A0000A20FAF781FF2068C00707D1B425A5F1C8
:1057B000C800B0FA80F04009B0BD00BF0A20FAF777
:1057C00073FF2068C0077FF4EAAEBE25A5F1C800CC
:1057D000B0FA80F04009B0BD0246D0F8000801F0F0
:1057E0007F0120F4FE60C2F80008D2F8000840EA09
:1057F00001110020C2F8001870470000022A02467A
:105800005FD145F24030CFF6277043F20053084491
:10581000C0F20C03984203D24FF4705053E000BF23
:1058200041F64060CFF61B7044F240230844C0F2BA
:105830000F03984202D24FF4605044E0A1F5740087
:1058400044F68073A0F51050C0F21203984203D2C0
:105850004FF4505037E000BFA1F183704DF2206348
:10586000A0F5E740C0F21303984203D24FF4405032
:1058700029E000BF4BF26060CFF6E5604EF2603386
:105880000844C0F21603984202D24FF430501AE096
:105890004DF20030CFF6CE6047F240730844C0F2BC
:1058A0001B03984202D24FF420500CE045F6C03062
:1058B000CFF6B36049F2C0130844C0F22103984206
:1058C0000AD24FF41050D16821F47051D160D168E0
:1058D00001430020D1607047A1F1B77047F2205317
:1058E000A0F55850C0F23803984203D24FF400504C
:1058F000E9E700BF45F2E040CFF6596049F6E043E2
:105900000144C0F241034FF4C050994238BF4FF4F4
:10591000E050D8E710B5DDF808C0BCF1000F2CD17D
:105920005BB303F1030E4FF0FF3303EB9E0300F56F
:1059300080541203032BCEF3810C0FD34FEA9E0346
:1059400023F003030868043B10514868105188682D
:105950001051C86801F110011051F3D1BCF1000FD2
:105960000BD00868BCF1010FA05006D04868BCF10C
:10597000020FA0501CBF8868A050002010BD00007E
:10598000FEE70000F0B581B040F20007C2F2000768
:1059900040F200450C46B988C4F202050646284686
:1059A0000022FAF765FFF98828460022FAF760FF1F
:1059B000398928460022FAF75BFF798928460022B8
:1059C000FAF756FFB98928460022FAF751FFF989FC
:1059D00028460022FAF74CFF398A28460022FAF7B7
:1059E00047FF398828460022FAF742FF798828467F
:1059F0000022FAF73DFFC6EBC6003E18B27CB9881C
:105A00002846002A18BF0122FAF732FFF27CF988F3
:105A10002846002A18BF0122FAF72AFF327D398969
:105A20002846002A18BF0122FAF722FF727D7989E1
:105A30002846002A18BF0122FAF71AFFB27DB98959
:105A40002846002A18BF0122FAF712FFF27DF989D1
:105A50002846002A18BF0122FAF70AFF327E398A47
:105A60002846002A18BF0122FAF702FF37F814105F
:105A70002846012201B0BDE8F040FAF7F9BE000067
:105A800086B040F20049C4F20209FBF7EFF9FDF7D6
:105A90000BFB002543F630040195C4F20204206894
:105AA00040F080002060206800F0800001900198A4
:105AB0000195206840F001002060206800F001009E
:105AC000019001980195206840F002002060206854
:105AD00000F0020001900198FDF70AF80195206896
